:100000000EC028C027C026C025C088C023C022C07B
:1000100021C020C01FC01EC01DC01CC01BC0112499
:100020001FBECFE5D2E0DEBFCDBF10E0A0E6B0E05E
:10003000EAE5F2E002C005900D92A236B107D9F7C9
:1000400020E0A2E6B0E001C01D92AD36B207E1F7B4
:10005000AFD001C1D5CF3FB7F8948091690090919E
:100060006A00A0916B00B0916C0022B708B601FE47
:1000700005C02F3F19F00196A11DB11D3FBFBA2F3A
:10008000A92F982F8827BC01CD01620F711D811DFA
:10009000911D43E0660F771F881F991F4A95D1F77E
:1000A0000895CF92DF92EF92FF92CF93DF936B018F
:1000B0007C01D1DFEB01CFDF6C1B7D0B683E734011
:1000C000A0F0C114D104E104F10439F4DF91CF911F
:1000D000FF90EF90DF90CF90089581E0C81AD1088B
:1000E000E108F108C851DC4FE6CFC114D104E104A6
:1000F000F10409F7EBCF8FB7F894B99A8FBF089541
:1001000090B79F7D90BF811105C08FB7F894C198BB
:100110008FBF08958FB7F894C19AFACF1F920F92AC
:100120000FB60F9211242F933F938F939F93AF930A
:10013000BF938091650090916600A0916700B09197
:1001400068003091640026E0230F2D3768F129E81C
:10015000230F0396A11DB11D2093640080936500B9
:1001600090936600A0936700B09368008091690047
:1001700090916A00A0916B00B0916C000196A11D56
:10018000B11D8093690090936A00A0936B00B093B7
:100190006C00BF91AF919F918F913F912F910F90E4
:1001A0000FBE0F901F9018950296A11DB11DD4CFC0
:1001B00083E08ABD83BF789489B7826089BF80E479
:1001C0008CBD8FEF8DBD87EC80BF86E886B993DF4D
:1001D0000FEF10E0C0916200D09163008CDF80E0EF
:1001E0001C161D0624F4CF3FD1059CF081E088DF6A
:1001F0008091620090916300209160002223D1F0F1
:1002000005968F3F910554F49093630080936200AC
:100210000BC080B7806280BFCEBDEACF1093630071
:1002200000936200109260006EE170E080E090E068
:1002300038DFD0CF05971816190634F310926300F3
:100240001092620081E08093600068EE73E080E0CD
:0A02500090E027DFE9CFF894FFCF1C
:02025A000100A1
:00000001FF
