:100000001AC034C033C032C031C0C0C02FC02EC0EF
:100010002DC02CC02BC02AC029C028C027C000007A
:100020000000370000000000380002020202020255
:1000300001020408102011241FBECFE5D2E0DEBF6C
:10004000CDBF10E0A0E6B0E0E4EFF2E002C0059022
:100050000D92A236B107D9F720E0A2E6B0E001C0C8
:100060001D92AE36B207E1F7DBD042C1C9CF3FB730
:10007000F89480916A0090916B00A0916C00B0910F
:100080006D0022B708B601FE05C02F3F19F001969A
:10009000A11DB11D3FBFBA2FA92F982F8827BC01E2
:1000A000CD01620F711D811D911D43E0660F771F09
:1000B000881F991F4A95D1F70895CF92DF92EF924A
:1000C000FF92CF93DF936B017C01D1DFEB01CFDF98
:1000D0006C1B7D0B683E7340A0F0C114D104E10499
:1000E000F10439F4DF91CF91FF90EF90DF90CF9042
:1000F000089581E0C81AD108E108F108C851DC4F21
:10010000E6CFC114D104E104F10409F7EBCF90B7B5
:100110009F7D90BF811105C08FB7F894C1988FBFA4
:1001200008958FB7F894C19AFACFCF93DF9390E0F8
:10013000FC01E05DFF4F2491865D9F4FFC0184919F
:100140008823D1F090E0880F991FFC01E25EFF4FF9
:10015000A591B491FC01EC5DFF4FC591D491623043
:1001600071F49FB7F8943C91822F809583238C93F0
:10017000E8812E2B28839FBFDF91CF9108958FB701
:10018000F894EC912E2B2C938FBFF6CF1F920F92E9
:100190000FB60F9211242F933F938F939F93AF939A
:1001A000BF938091660090916700A0916800B09124
:1001B00069003091650026E0230F2D3768F129E8AA
:1001C000230F0396A11DB11D209365008093660047
:1001D00090936700A0936800B093690080916A00D3
:1001E00090916B00A0916C00B0916D000196A11DE3
:1001F000B11D80936A0090936B00A0936C00B09344
:100200006D00BF91AF919F918F913F912F910F9072
:100210000FBE0F901F9018950296A11DB11DD4CF4F
:1002200083E08ABD83BF789489B7826089BF80E408
:100230008CBD8FEF8DBD87EC80BF86E886B961E00D
:1002400081E073DF62E083E070DFCFEFD0E0B3994D
:100250000DC08091640091E089278093640057DF8E
:1002600064E670E080E090E028DFF1CF009162006A
:100270001091630061E081E058DF80E01016110604
:1002800024F40F3F11059CF081E041DF8091620072
:1002900090916300209160002223C9F005968F3F62
:1002A000910554F490936300809362000BC080B773
:1002B000806280BF0EBDEACFD0936300C09362001E
:1002C000109260006EE170E080E090E0CDCF059785
:1002D000181619063CF3109263001092620081E038
:1002E0008093600068EE73E080E090E0E6DEEACFA5
:0402F000F894FFCFB0
:0202F400010007
:00000001FF
